{
  "address": "0xd4f62F9Cef4B45d39Ab1635077FA5e5F69A12797",
  "abi": [
    {
      "inputs": [],
      "stateMutability": "nonpayable",
      "type": "constructor"
    },
    {
      "anonymous": false,
      "inputs": [
        {
          "indexed": true,
          "internalType": "address",
          "name": "requester",
          "type": "address"
        },
        {
          "indexed": false,
          "internalType": "string",
          "name": "mailAddress",
          "type": "string"
        },
        {
          "indexed": true,
          "internalType": "address",
          "name": "resolvedAddress",
          "type": "address"
        }
      ],
      "name": "Registered",
      "type": "event"
    },
    {
      "anonymous": false,
      "inputs": [
        {
          "indexed": true,
          "internalType": "address",
          "name": "requester",
          "type": "address"
        },
        {
          "indexed": false,
          "internalType": "string",
          "name": "mailAddress",
          "type": "string"
        }
      ],
      "name": "ResolveRequested",
      "type": "event"
    },
    {
      "inputs": [
        {
          "internalType": "string",
          "name": "mailAddress",
          "type": "string"
        }
      ],
      "name": "getResolvedAddress",
      "outputs": [
        {
          "internalType": "address",
          "name": "",
          "type": "address"
        }
      ],
      "stateMutability": "view",
      "type": "function"
    },
    {
      "inputs": [
        {
          "internalType": "address",
          "name": "requester",
          "type": "address"
        },
        {
          "internalType": "string",
          "name": "mailAddress",
          "type": "string"
        },
        {
          "internalType": "address",
          "name": "resolvedAddress",
          "type": "address"
        }
      ],
      "name": "register",
      "outputs": [],
      "stateMutability": "nonpayable",
      "type": "function"
    },
    {
      "inputs": [
        {
          "internalType": "string",
          "name": "mailAddress",
          "type": "string"
        }
      ],
      "name": "requestResolve",
      "outputs": [],
      "stateMutability": "nonpayable",
      "type": "function"
    }
  ],
  "transactionHash": "0x555e538e2299c99c2551bddbd252af93bf7c0ea7e3bb543083452c9edf5b486d",
  "args": [],
  "numDeployments": 1,
  "solcInputHash": "340558a06a2e80b4dab55dba462bc056",
  "bytecode": "0x6080604052341561000f57600080fd5b6105aa8061001f608039806080f3fe6080604052600436106100b3576000803560e01c6397294e58811461003957639b01dc3781146100605763fabad3fc8114610081576100b0565b3415610043578182fd5b61004c36610170565b61005781838561041f565b50505081604051f35b341561006a578182fd5b61007b610076366101e6565b61034d565b81604051f35b341561008b578182fd5b61009c610097366101e6565b6102cd565b6040516001600160a01b0382168152602081f35b50505b600080fd5b7f4e487b7100000000000000000000000000000000000000000000000000000000600052604160045260246000fd5b600082601f8301126100f857600080fd5b813567ffffffffffffffff80821115610113576101136100b8565b604051601f8301601f19908116603f01168101828111828210171561013a5761013a6100b8565b60405282815284830160200186101561015257600080fd5b82602086016020830137600092810160200192909252509392505050565b6000808060606003198501121561018657600080fd5b6004356001600160a01b03808216821461019f57600080fd5b9093506024359067ffffffffffffffff8211156101bb57600080fd5b6101c886836004016100e7565b9350604435915080821682146101dd57600080fd5b50929491935050565b60006020600319830112156101fa57600080fd5b60043567ffffffffffffffff81111561021257600080fd5b61021f83826004016100e7565b9392505050565b806102705760405162461bcd60e51b815260206004820152601b60248201527f496e76616c6964204d61696c2041646472657373204c656e67746800000000006044820152606481fd5b50565b60005b8381101561028e578181015183820152602001610276565b8381111561029d576000848401525b50505050565b600060405182516102b8818360208701610273565b81019384529283900360200190922092915050565b6102d981511515610226565b3360005260006020526000604060002060405183516102fc818360208801610273565b8101918252908190036020019020546001600160a01b031692915050565b6020815260008251806020840152610339816040850160208701610273565b601f01601f19169190910160400192915050565b61035981511515610226565b3360005260006020526040600020604051825161037a818360208701610273565b81018281528181036020018220546001600160a01b03161561039b57600080fd5b505050604051337f0bc0a6171cd3e81f346bf3f18ffb0d2ff1284b7dd7d7866ebac71708f470caf3826103ce858561031a565b0383a25050565b806102705760405162461bcd60e51b815260206004820152601860248201527f496e76616c6964205265736f6c766564204164647265737300000000000000006044820152606481fd5b6001600160a01b038082166104735760405162461bcd60e51b815260206004820152601960248201527f496e76616c6964205265717565737465722041646472657373000000000000006044820152606481fd5b82516104be5760405162461bcd60e51b815260206004820152601b60248201527f496e63616c6964204d61696c2041646472657373204c656e67746800000000006044820152606481fd5b6104cb81851615156103d5565b5061052c836104f76104f1846001600160a01b0316600090815260208190526040902090565b856102a3565b6001600160a01b0382167fffffffffffffffffffffffff00000000000000000000000000000000000000008254161781555050565b60405183827fcf03e589fffdb277541bdb1081311cf33c0f187d0ad83db9a91ea2a1bffbbf048361055d878661031a565b0384a35050505056fea3646970667358221220b9e17f2a110f112adca7366c174d7464ef88d995649acfc06be3d928f5953aa36c6578706572696d656e74616cf564736f6c63430008090041",
  "devdoc": {
    "kind": "dev",
    "methods": {
      "getResolvedAddress(string)": {
        "details": "Return the resolved address for msg.sender",
        "params": {
          "mailAddress": "Mail Address to be resolved"
        }
      },
      "register(address,string,address)": {
        "details": "Register the wallet address",
        "params": {
          "mailAddress": "Mail Address to be resolved",
          "requester": "Requester Address",
          "resolvedAddress": "Resolved Address"
        }
      },
      "requestResolve(string)": {
        "details": "Request to resolve the mail address to wallet address.",
        "params": {
          "mailAddress": "Mail Address to be resolved"
        }
      }
    },
    "version": 1
  },
  "userdoc": {
    "kind": "user",
    "methods": {},
    "version": 1
  },
  "storageLayout": {
    "storage": [
      {
        "astId": 23,
        "contract": "contracts/HikyakuProtocol.sol:HikyakuProtocol",
        "label": "records",
        "offset": 0,
        "slot": "0",
        "type": "t_mapping(t_address,t_mapping(t_string_memory_ptr,t_address))"
      }
    ],
    "types": {
      "t_address": {
        "encoding": "inplace",
        "label": "address",
        "numberOfBytes": "20"
      },
      "t_mapping(t_address,t_mapping(t_string_memory_ptr,t_address))": {
        "encoding": "mapping",
        "key": "t_address",
        "label": "mapping(address => mapping(string => address))",
        "numberOfBytes": "32",
        "value": "t_mapping(t_string_memory_ptr,t_address)"
      },
      "t_mapping(t_string_memory_ptr,t_address)": {
        "encoding": "mapping",
        "key": "t_string_memory_ptr",
        "label": "mapping(string => address)",
        "numberOfBytes": "32",
        "value": "t_address"
      },
      "t_string_memory_ptr": {
        "encoding": "bytes",
        "label": "string",
        "numberOfBytes": "32"
      }
    }
  }
}