{
  "address": "0x774FBFD1478dCBC95A1D7d545C16e10bC756a648",
  "abi": [
    {
      "inputs": [],
      "stateMutability": "nonpayable",
      "type": "constructor"
    },
    {
      "anonymous": false,
      "inputs": [
        {
          "indexed": true,
          "internalType": "address",
          "name": "requester",
          "type": "address"
        },
        {
          "indexed": false,
          "internalType": "string",
          "name": "mailAddress",
          "type": "string"
        },
        {
          "indexed": true,
          "internalType": "address",
          "name": "resolvedAddress",
          "type": "address"
        }
      ],
      "name": "PkpRegisterd",
      "type": "event"
    },
    {
      "anonymous": false,
      "inputs": [
        {
          "indexed": true,
          "internalType": "address",
          "name": "requester",
          "type": "address"
        },
        {
          "indexed": false,
          "internalType": "string",
          "name": "mailAddress",
          "type": "string"
        },
        {
          "indexed": true,
          "internalType": "address",
          "name": "resolvedAddress",
          "type": "address"
        }
      ],
      "name": "Registered",
      "type": "event"
    },
    {
      "anonymous": false,
      "inputs": [
        {
          "indexed": true,
          "internalType": "address",
          "name": "requester",
          "type": "address"
        },
        {
          "indexed": false,
          "internalType": "string",
          "name": "mailAddress",
          "type": "string"
        },
        {
          "indexed": false,
          "internalType": "string",
          "name": "name",
          "type": "string"
        },
        {
          "indexed": false,
          "internalType": "string",
          "name": "message",
          "type": "string"
        }
      ],
      "name": "ResolveRequested",
      "type": "event"
    },
    {
      "inputs": [
        {
          "internalType": "address",
          "name": "requester",
          "type": "address"
        },
        {
          "internalType": "string",
          "name": "mailAddress",
          "type": "string"
        }
      ],
      "name": "getResolvedAddress",
      "outputs": [
        {
          "internalType": "address",
          "name": "",
          "type": "address"
        }
      ],
      "stateMutability": "view",
      "type": "function"
    },
    {
      "inputs": [
        {
          "internalType": "address",
          "name": "requester",
          "type": "address"
        },
        {
          "internalType": "string",
          "name": "mailAddress",
          "type": "string"
        },
        {
          "internalType": "address",
          "name": "resolvedAddress",
          "type": "address"
        }
      ],
      "name": "register",
      "outputs": [],
      "stateMutability": "nonpayable",
      "type": "function"
    },
    {
      "inputs": [
        {
          "internalType": "address",
          "name": "requester",
          "type": "address"
        },
        {
          "internalType": "string",
          "name": "mailAddress",
          "type": "string"
        },
        {
          "internalType": "address",
          "name": "pkpAddress",
          "type": "address"
        }
      ],
      "name": "registerPkpAddress",
      "outputs": [],
      "stateMutability": "nonpayable",
      "type": "function"
    },
    {
      "inputs": [
        {
          "internalType": "string",
          "name": "mailAddress",
          "type": "string"
        },
        {
          "internalType": "string",
          "name": "name",
          "type": "string"
        },
        {
          "internalType": "string",
          "name": "message",
          "type": "string"
        }
      ],
      "name": "requestResolve",
      "outputs": [],
      "stateMutability": "nonpayable",
      "type": "function"
    }
  ],
  "transactionHash": "0x2011c1237b478b6e13288a4a12200cd3471f6bb18be02e8e1b3bd9d36c4e8b77",
  "args": [],
  "numDeployments": 2,
  "solcInputHash": "fb254604cfc684ab460c3bdaf58a446c",
  "bytecode": "0x6080604052341561000f57600080fd5b6107538061001f608039806080f3fe6080604052600436106100e0576000803560e01c635f2077458114610044576397294e58811461006b5763b25af50c81146100895763cbc8906581146100a7576100dd565b341561004e578182fd5b6100573661019d565b6100628183856103f0565b50505081604051f35b3415610075578182fd5b61007e36610225565b61006281838561064f565b3415610093578182fd5b61009c36610225565b610062818385610586565b34156100b1578182fd5b6100ba3661029b565b6100c48183610374565b6040516001600160a01b03821681529092509050602081f35b50505b600080fd5b7f4e487b7100000000000000000000000000000000000000000000000000000000600052604160045260246000fd5b600082601f83011261012557600080fd5b813567ffffffffffffffff80821115610140576101406100e5565b604051601f8301601f19908116603f011681018281118282101715610167576101676100e5565b60405282815284830160200186101561017f57600080fd5b82602086016020830137600092810160200192909252509392505050565b600080806060600319850112156101b357600080fd5b60043567ffffffffffffffff808211156101cc57600080fd5b6101d98683600401610114565b94506024359150808211156101ed57600080fd5b6101fa8683600401610114565b935060443591508082111561020e57600080fd5b5061021c8582600401610114565b93959294505050565b6000808060606003198501121561023b57600080fd5b6004356001600160a01b03808216821461025457600080fd5b9093506024359067ffffffffffffffff82111561027057600080fd5b61027d8683600401610114565b93506044359150808216821461029257600080fd5b50929491935050565b6000806040600319840112156102b057600080fd5b6004356001600160a01b03811681146102c857600080fd5b915060243567ffffffffffffffff8111156102e257600080fd5b6102ef8482600401610114565b915050915091565b806103415760405162461bcd60e51b815260206004820152601b60248201527f496e76616c6964204d61696c2041646472657373204c656e67746800000000006044820152606481fd5b50565b60005b8381101561035f578181015183820152602001610347565b8381111561036e576000848401525b50505050565b610380825115156102f7565b60006001600160a01b038083166000526000602052604060002060405185516103ad818360208a01610344565b810191825290819003602001902054169392505050565b600081518084526103dc816020860160208601610344565b601f01601f19169290920160200192915050565b6103fc815115156102f7565b3360005260006020526040600020604051825161041d818360208701610344565b81018281528181036020018220546001600160a01b03161561043e57600080fd5b5050506040516060815261045560608201836103c4565b818103602083015261046781856103c4565b90508181036040830152337fd45b0656127288cc7756b9de40497a395ec5271070081e4b00875fe40057ef318361049e84896103c4565b0384a25050505050565b806103415760405162461bcd60e51b815260206004820152601960248201527f496e76616c6964205265717565737465722041646472657373000000000000006044820152606481fd5b806103415760405162461bcd60e51b815260206004820152601b60248201527f496e63616c6964204d61696c2041646472657373204c656e67746800000000006044820152606481fd5b806103415760405162461bcd60e51b815260206004820152601860248201527f496e76616c6964205265736f6c766564204164647265737300000000000000006044820152606481fd5b6001600160a01b0380821661059c8115156104a8565b6105a8845115156104f2565b6105b5828616151561053c565b8060005250506000602052604060002060405183516105d8818360208801610344565b81018281526020828203018220805473ffffffffffffffffffffffffffffffffffffffff19166001600160a01b0388161790555050506040516020815283827fdeb4f812c813c903cafb729ef1a12fc224c6f1f9feffa46574a34abb24e19af78361064660208601886103c4565b0384a350505050565b6001600160a01b038082166106658115156104a8565b610671845115156104f2565b61067e828616151561053c565b8060005250506000602052604060002060405183516106a1818360208801610344565b81018281526020828203018220805473ffffffffffffffffffffffffffffffffffffffff19166001600160a01b0388161790555050506040516020815283827fcf03e589fffdb277541bdb1081311cf33c0f187d0ad83db9a91ea2a1bffbbf048361064660208601886103c456fea3646970667358221220b823e38fc603b9c4dc7bd9d70190cbdb016d5cc2138e360d9e8a947ee72677486c6578706572696d656e74616cf564736f6c63430008090041",
  "devdoc": {
    "kind": "dev",
    "methods": {
      "getResolvedAddress(address,string)": {
        "details": "Return the resolved address for msg.sender",
        "params": {
          "mailAddress": "Mail Address to be resolved"
        }
      },
      "register(address,string,address)": {
        "details": "Register the wallet address",
        "params": {
          "mailAddress": "Mail Address to be resolved",
          "requester": "Requester Address",
          "resolvedAddress": "Resolved Address"
        }
      },
      "requestResolve(string,string,string)": {
        "details": "Request to resolve the mail address to wallet address.",
        "params": {
          "mailAddress": "Mail Address to be resolved"
        }
      }
    },
    "version": 1
  },
  "userdoc": {
    "kind": "user",
    "methods": {},
    "version": 1
  },
  "storageLayout": {
    "storage": [
      {
        "astId": 35,
        "contract": "contracts/HikyakuProtocol.sol:HikyakuProtocol",
        "label": "records",
        "offset": 0,
        "slot": "0",
        "type": "t_mapping(t_address,t_mapping(t_string_memory_ptr,t_address))"
      }
    ],
    "types": {
      "t_address": {
        "encoding": "inplace",
        "label": "address",
        "numberOfBytes": "20"
      },
      "t_mapping(t_address,t_mapping(t_string_memory_ptr,t_address))": {
        "encoding": "mapping",
        "key": "t_address",
        "label": "mapping(address => mapping(string => address))",
        "numberOfBytes": "32",
        "value": "t_mapping(t_string_memory_ptr,t_address)"
      },
      "t_mapping(t_string_memory_ptr,t_address)": {
        "encoding": "mapping",
        "key": "t_string_memory_ptr",
        "label": "mapping(string => address)",
        "numberOfBytes": "32",
        "value": "t_address"
      },
      "t_string_memory_ptr": {
        "encoding": "bytes",
        "label": "string",
        "numberOfBytes": "32"
      }
    }
  }
}